:100000000C945D000C9485000C9485000C94850084
:100010000C9485000C9485000C9485000C9485004C
:100020000C9485000C9485000C9485000C9485003C
:100030000C9485000C9485000C9485000C9485002C
:100040000C949C010C9485000C940C020C94E60119
:100050000C9485000C9485000C9485000C9485000C
:100060000C9485000C9485000000000024002700FB
:100070002A0000000000250028002B0004040404CE
:100080000404040402020202020203030303030342
:10009000010204081020408001020408102001021F
:1000A00004081020000000080002010000030407FB
:1000B0000000000000000000810311241FBECFEFEC
:1000C000D8E0DEBFCDBF11E0A0E0B1E0ECE6F7E0A4
:1000D00002C005900D92AA32B107D9F721E0AAE239
:1000E000B1E001C01D92A53DB207E1F710E0CDE5FA
:1000F000D0E004C02197FE010E94AE03CC35D107A9
:10010000C9F70E943E020C94B4030C940000AF9215
:10011000BF92CF92DF92EF92FF920F931F93CF93F4
:10012000DF936C017B018B01040F151FEB015E0156
:10013000AE18BF08C017D10759F06991D601ED91EB
:10014000FC910190F081E02DC6010995892B79F78A
:10015000C501DF91CF911F910F91FF90EF90DF903C
:10016000CF90BF90AF900895FC01538D448D252F03
:1001700030E0842F90E0821B930B541710F0CF9641
:10018000089501970895FC01918D828D981761F073
:10019000A28DAE0FBF2FB11D5D968C91928D9F5F8A
:1001A0009F73928F90E008958FEF9FEF0895FC0169
:1001B000918D828D981731F0828DE80FF11D858D1C
:1001C00090E008958FEF9FEF0895FC01918D228DAF
:1001D000892F90E0805C9F4F821B91098F73992734
:1001E000089588E391E00E94E50021E0892B09F45D
:1001F00020E0822F089580E090E0892B29F00E9472
:10020000F10081110C9400000895FC01A48DA80F49
:10021000B92FB11DA35ABF4F2C91848D90E0019648
:100220008F739927848FA689B7892C93A089B18968
:100230008C91837080648C93938D848D981306C009
:100240000288F389E02D80818F7D80830895EF926D
:10025000FF920F931F93CF93DF93EC0181E0888F80
:100260009B8D8C8D98131AC0E889F989808185FF50
:1002700015C09FB7F894EE89FF896083E889F989F2
:1002800080818370806480839FBF81E090E0DF91F4
:10029000CF911F910F91FF90EF900895F62E0B8D47
:1002A00010E00F5F1F4F0F731127E02E8C8D8E1102
:1002B0000CC00FB607FCFACFE889F989808185FF69
:1002C000F5CFCE010E940501F1CFEB8DEC0FFD2F94
:1002D000F11DE35AFF4FF0829FB7F8940B8FEA8924
:1002E000FB8980818062CFCFCF93DF93EC01888D33
:1002F0008823B9F0AA89BB89E889F9898C9185FDA1
:1003000003C0808186FD0DC00FB607FCF7CF8C912E
:1003100085FFF2CF808185FFEDCFCE010E940501E0
:10032000E9CFDF91CF91089542E050E062E171E0C2
:1003300088E391E00C9487001F920F920FB60F9202
:1003400011242F933F938F939F93AF93BF938091EB
:10035000340190913501A0913601B091370130916F
:10036000330123E0230F2D3758F50196A11DB11D50
:10037000209333018093340190933501A09336018B
:10038000B093370180912F0190913001A0913101FC
:10039000B09132010196A11DB11D80932F01909360
:1003A0003001A0933101B0933201BF91AF919F9181
:1003B0008F913F912F910F900FBE0F901F90189526
:1003C00026E8230F0296A11DB11DD2CF1F920F92D6
:1003D0000FB60F9211242F933F934F935F936F9318
:1003E0007F938F939F93AF93BF93EF93FF9388E394
:1003F00091E00E940501FF91EF91BF91AF919F9114
:100400008F917F916F915F914F913F912F910F90BD
:100410000FBE0F901F9018951F920F920FB60F925C
:1004200011242F938F939F93EF93FF93E0914801B3
:10043000F09149018081E0914E01F0914F0182FDE0
:100440001BC09081809151018F5F8F732091520169
:10045000821741F0E0915101F0E0E85CFE4F958F8A
:1004600080935101FF91EF919F918F912F910F9068
:100470000FBE0F901F9018958081F4CF789484B5AB
:10048000826084BD84B5816084BD85B5826085BD90
:1004900085B5816085BD80916E00816080936E001E
:1004A0001092810080918100826080938100809110
:1004B00081008160809381008091800081608093C1
:1004C00080008091B10084608093B1008091B00081
:1004D00081608093B00080917A00846080937A007C
:1004E00080917A00826080937A0080917A008160A6
:1004F00080937A0080917A00806880937A001092CD
:10050000C100E0914801F091490182E08083E091CF
:100510004401F09145011082E0914601F0914701BC
:1005200080E1808310925001E0914C01F0914D01E7
:1005300086E08083E0914A01F0914B0180818061E7
:100540008083E0914A01F0914B0180818860808333
:10055000E0914A01F0914B01808180688083E091B5
:100560004A01F0914B0180818F7D8083CDE9D0E0FD
:10057000FE01249109E810E0F8018491882399F0A4
:1005800090E0880F991FFC01E859FF4FA591B491A5
:10059000FC01EE58FF4F859194918FB7F8949C9190
:1005A000292B2C938FBF45E050E064E271E088E393
:1005B00091E00E9487000E949401BB24B39421EB38
:1005C000C22E20E0D22E30E0E32E30E0F32E2FB703
:1005D000F8948091340190913501A0913601B09149
:1005E00037012FBF40912B0150912C0160912D01BB
:1005F00070912E013C014D01641A750A860A970A12
:10060000B401A301483853416105710508F449C09C
:1006100080932B0190932C01A0932D01B0932E0178
:1006200020912A012B2520932A01F6019491FE01A5
:100630008491F80134913323F1F0992359F09330E8
:1006400009F445C008F039C0913009F446C0923031
:1006500009F447C0E32FF0E0EE0FFF1FEE58FF4F05
:10066000A591B4919FB7F894211148C02C91809521
:1006700082238C939FBF80912A0165E171E08823DA
:1006800011F06DE171E0FB0101900020E9F7319775
:10069000AF01461B570B88E391E00E9487000E9440
:1006A0009401E114F10409F492CF0E94F10088232F
:1006B00009F48DCF0E9400008ACF9730A9F09830BE
:1006C000C9F0943039F6909180009F7D03C09091DD
:1006D00080009F7790938000BDCF94B59F7794BDA5
:1006E000B9CF94B59F7DFBCF9091B0009F77909349
:1006F000B000B0CF9091B0009F7DF9CF2C91822BAC
:10070000B8CFE8E3F1E01382128288EE93E0A0E034
:10071000B0E084839583A683B78384E091E09183DE
:10072000808385EC90E09587848784EC90E09787C0
:10073000868780EC90E0918B808B81EC90E0938BAE
:10074000828B82EC90E0958B848B86EC90E0978B8B
:10075000868B118E128E138E148E0895EE0FFF1F4E
:0C0760000590F491E02D0994F894FFCF6F
:10076C000000000027018700B4007401E500C300FD
:10077C00D7000D0A004C4544204F4646004C4544DA
:0A078C00204F4E0053746172740098
:00000001FF
